:100000000C9434000C943E000C943E000C943E0082
:100010000C943E000C943E000C943E000C943E0068
:100020000C943E000C943E000C943E000C943E0058
:100030000C943E000C943E000C943E000C943E0048
:100040000C943E000C943E000C943E000C943E0038
:100050000C943E000C943E000C943E000C943E0028
:100060000C943E000C943E0011241FBECFEFD8E04C
:10007000DEBFCDBF0E9444000C9452000C940000DF
:1000800025B1209525B9089580E284B90E944000E9
:100090002FEF83ED90E3215080409040E1F700C0C6
:0800A0000000F4CFF894FFCF3B
:00000001FF
